{
  "contractName": "UserCrud",
  "abi": [
    {
      "inputs": [],
      "stateMutability": "nonpayable",
      "type": "constructor"
    },
    {
      "anonymous": false,
      "inputs": [
        {
          "indexed": false,
          "internalType": "string",
          "name": "uuid",
          "type": "string"
        },
        {
          "indexed": false,
          "internalType": "string",
          "name": "accountType",
          "type": "string"
        }
      ],
      "name": "AccountTypeUpdated",
      "type": "event"
    },
    {
      "anonymous": false,
      "inputs": [
        {
          "indexed": false,
          "internalType": "string",
          "name": "uuid",
          "type": "string"
        }
      ],
      "name": "UserDelete",
      "type": "event"
    },
    {
      "anonymous": false,
      "inputs": [
        {
          "indexed": false,
          "internalType": "string",
          "name": "uuid",
          "type": "string"
        },
        {
          "indexed": false,
          "internalType": "string",
          "name": "accountType",
          "type": "string"
        },
        {
          "indexed": false,
          "internalType": "uint256",
          "name": "devices",
          "type": "uint256"
        }
      ],
      "name": "UserEvent",
      "type": "event"
    },
    {
      "inputs": [],
      "name": "totalUsers",
      "outputs": [
        {
          "internalType": "uint256",
          "name": "",
          "type": "uint256"
        }
      ],
      "stateMutability": "view",
      "type": "function",
      "constant": true
    },
    {
      "inputs": [
        {
          "internalType": "uint256",
          "name": "",
          "type": "uint256"
        }
      ],
      "name": "users",
      "outputs": [
        {
          "internalType": "string",
          "name": "uuid",
          "type": "string"
        },
        {
          "internalType": "string",
          "name": "accountType",
          "type": "string"
        },
        {
          "internalType": "uint256",
          "name": "devices",
          "type": "uint256"
        }
      ],
      "stateMutability": "view",
      "type": "function",
      "constant": true
    },
    {
      "inputs": [
        {
          "internalType": "string",
          "name": "uuid",
          "type": "string"
        },
        {
          "internalType": "string",
          "name": "accountType",
          "type": "string"
        },
        {
          "internalType": "uint256",
          "name": "devices",
          "type": "uint256"
        }
      ],
      "name": "insert",
      "outputs": [
        {
          "internalType": "uint256",
          "name": "_totalUsers",
          "type": "uint256"
        }
      ],
      "stateMutability": "nonpayable",
      "type": "function"
    },
    {
      "inputs": [
        {
          "internalType": "string",
          "name": "uuid",
          "type": "string"
        },
        {
          "internalType": "string",
          "name": "newAccountType",
          "type": "string"
        }
      ],
      "name": "updateAccountType",
      "outputs": [
        {
          "internalType": "bool",
          "name": "success",
          "type": "bool"
        }
      ],
      "stateMutability": "nonpayable",
      "type": "function"
    },
    {
      "inputs": [
        {
          "internalType": "string",
          "name": "uuid",
          "type": "string"
        }
      ],
      "name": "deleteUser",
      "outputs": [
        {
          "internalType": "bool",
          "name": "success",
          "type": "bool"
        }
      ],
      "stateMutability": "nonpayable",
      "type": "function"
    },
    {
      "inputs": [
        {
          "internalType": "string",
          "name": "_uuid",
          "type": "string"
        }
      ],
      "name": "getUser",
      "outputs": [
        {
          "internalType": "string",
          "name": "uuid",
          "type": "string"
        },
        {
          "internalType": "string",
          "name": "accountType",
          "type": "string"
        },
        {
          "internalType": "uint256",
          "name": "devices",
          "type": "uint256"
        }
      ],
      "stateMutability": "view",
      "type": "function",
      "constant": true
    },
    {
      "inputs": [],
      "name": "getUsers",
      "outputs": [
        {
          "components": [
            {
              "internalType": "string",
              "name": "uuid",
              "type": "string"
            },
            {
              "internalType": "string",
              "name": "accountType",
              "type": "string"
            },
            {
              "internalType": "uint256",
              "name": "devices",
              "type": "uint256"
            }
          ],
          "internalType": "struct UserCrud.user[]",
          "name": "",
          "type": "tuple[]"
        }
      ],
      "stateMutability": "view",
      "type": "function",
      "constant": true
    }
  ],
  "bytecode": "0x608060405234801561001057600080fd5b50600060018190555061190f806100286000396000f3fe608060405234801561001057600080fd5b506004361061007c5760003560e01c8063365b98b21161005b578063365b98b214610101578063bff1f9e114610133578063c1356d2614610151578063d3695161146101815761007c565b8062ce8e3e1461008157806313d9f00d1461009f57806331feb671146100cf575b600080fd5b6100896101b1565b60405161009691906114d6565b60405180910390f35b6100b960048036038101906100b4919061115d565b61033e565b6040516100c691906114f8565b60405180910390f35b6100e960048036038101906100e4919061111c565b6104f4565b6040516100f89392919061156c565b60405180910390f35b61011b60048036038101906101169190611248565b610847565b60405161012a9392919061156c565b60405180910390f35b61013b610991565b6040516101489190611611565b60405180910390f35b61016b600480360381019061016691906111c9565b610997565b6040516101789190611611565b60405180910390f35b61019b6004803603810190610196919061111c565b610bc7565b6040516101a891906114f8565b60405180910390f35b60606000805480602002602001604051908101604052809291908181526020016000905b828210156103355783829060005260206000209060030201604051806060016040529081600082018054610208906117a9565b80601f0160208091040260200160405190810160405280929190818152602001828054610234906117a9565b80156102815780601f1061025657610100808354040283529160200191610281565b820191906000526020600020905b81548152906001019060200180831161026457829003601f168201915b5050505050815260200160018201805461029a906117a9565b80601f01602080910402602001604051908101604052809291908181526020018280546102c6906117a9565b80156103135780601f106102e857610100808354040283529160200191610313565b820191906000526020600020905b8154815290600101906020018083116102f657829003601f168201915b50505050508152602001600282015481525050815260200190600101906101d5565b50505050905090565b600080600090505b6001548110156104e85761042d6000828154811061038d577f4e487b7100000000000000000000000000000000000000000000000000000000600052603260045260246000fd5b906000526020600020906003020160000180546103a9906117a9565b80601f01602080910402602001604051908101604052809291908181526020018280546103d5906117a9565b80156104225780601f106103f757610100808354040283529160200191610422565b820191906000526020600020905b81548152906001019060200180831161040557829003601f168201915b505050505085610ed6565b156104d557826000828154811061046d577f4e487b7100000000000000000000000000000000000000000000000000000000600052603260045260246000fd5b90600052602060002090600302016001019080519060200190610491929190610f2f565b507f2c505adf3386a518efc7e136388adf8b4de5e1af587e9fbf690f977d7e121a2384846040516104c3929190611535565b60405180910390a160019150506104ee565b80806104e0906117db565b915050610346565b50600090505b92915050565b606080600080600090505b600154811015610804576105e660008281548110610546577f4e487b7100000000000000000000000000000000000000000000000000000000600052603260045260246000fd5b90600052602060002090600302016000018054610562906117a9565b80601f016020809104026020016040519081016040528092919081815260200182805461058e906117a9565b80156105db5780601f106105b0576101008083540402835291602001916105db565b820191906000526020600020905b8154815290600101906020018083116105be57829003601f168201915b505050505086610ed6565b156107f15760008181548110610625577f4e487b7100000000000000000000000000000000000000000000000000000000600052603260045260246000fd5b906000526020600020906003020160000160008281548110610670577f4e487b7100000000000000000000000000000000000000000000000000000000600052603260045260246000fd5b9060005260206000209060030201600101600083815481106106bb577f4e487b7100000000000000000000000000000000000000000000000000000000600052603260045260246000fd5b9060005260206000209060030201600201548280546106d9906117a9565b80601f0160208091040260200160405190810160405280929190818152602001828054610705906117a9565b80156107525780601f1061072757610100808354040283529160200191610752565b820191906000526020600020905b81548152906001019060200180831161073557829003601f168201915b50505050509250818054610765906117a9565b80601f0160208091040260200160405190810160405280929190818152602001828054610791906117a9565b80156107de5780601f106107b3576101008083540402835291602001916107de565b820191906000526020600020905b8154815290600101906020018083116107c157829003601f168201915b5050505050915093509350935050610840565b80806107fc906117db565b9150506104ff565b506040517f08c379a0000000000000000000000000000000000000000000000000000000008152600401610837906115b1565b60405180910390fd5b9193909250565b6000818154811061085757600080fd5b906000526020600020906003020160009150905080600001805461087a906117a9565b80601f01602080910402602001604051908101604052809291908181526020018280546108a6906117a9565b80156108f35780601f106108c8576101008083540402835291602001916108f3565b820191906000526020600020905b8154815290600101906020018083116108d657829003601f168201915b505050505090806001018054610908906117a9565b80601f0160208091040260200160405190810160405280929190818152602001828054610934906117a9565b80156109815780601f1061095657610100808354040283529160200191610981565b820191906000526020600020905b81548152906001019060200180831161096457829003601f168201915b5050505050908060020154905083565b60015481565b600080604051806060016040528086815260200185815260200184815250905060005b600154811015610af457610aa160008281548110610a01577f4e487b7100000000000000000000000000000000000000000000000000000000600052603260045260246000fd5b90600052602060002090600302016000018054610a1d906117a9565b80601f0160208091040260200160405190810160405280929190818152602001828054610a49906117a9565b8015610a965780601f10610a6b57610100808354040283529160200191610a96565b820191906000526020600020905b815481529060010190602001808311610a7957829003601f168201915b505050505087610ed6565b15610ae1576040517f08c379a0000000000000000000000000000000000000000000000000000000008152600401610ad8906115f1565b60405180910390fd5b8080610aec906117db565b9150506109ba565b5060008190806001815401808255809150506001900390600052602060002090600302016000909190919091506000820151816000019080519060200190610b3d929190610f2f565b506020820151816001019080519060200190610b5a929190610f2f565b5060408201518160020155505060016000815480929190610b7a906117db565b91905055507fedc1cad62064b1a6856761808420d69b2d32d31309679e44c6cb71d78ac2db81858585604051610bb29392919061156c565b60405180910390a16001549150509392505050565b60008060015411610c0d576040517f08c379a0000000000000000000000000000000000000000000000000000000008152600401610c04906115d1565b60405180910390fd5b60005b600154811015610ecb57610cf760008281548110610c57577f4e487b7100000000000000000000000000000000000000000000000000000000600052603260045260246000fd5b90600052602060002090600302016000018054610c73906117a9565b80601f0160208091040260200160405190810160405280929190818152602001828054610c9f906117a9565b8015610cec5780601f10610cc157610100808354040283529160200191610cec565b820191906000526020600020905b815481529060010190602001808311610ccf57829003601f168201915b505050505084610ed6565b15610eb857600060018054610d0c91906116f3565b81548110610d43577f4e487b7100000000000000000000000000000000000000000000000000000000600052603260045260246000fd5b906000526020600020906003020160008281548110610d8b577f4e487b7100000000000000000000000000000000000000000000000000000000600052603260045260246000fd5b90600052602060002090600302016000820181600001908054610dad906117a9565b610db8929190610fb5565b506001820181600101908054610dcd906117a9565b610dd8929190610fb5565b50600282015481600201559050506000805480610e1e577f4e487b7100000000000000000000000000000000000000000000000000000000600052603160045260246000fd5b600190038181906000526020600020906003020160008082016000610e439190611042565b600182016000610e539190611042565b60028201600090555050905560016000815480929190610e729061177f565b91905055507f92b210d46c1f3938c69ccced7a2a3bf564396bc6c46dd95bc8c48be248a6b57183604051610ea69190611513565b60405180910390a16001915050610ed1565b8080610ec3906117db565b915050610c10565b50600090505b919050565b600081604051602001610ee99190611513565b6040516020818303038152906040528051906020012083604051602001610f109190611513565b6040516020818303038152906040528051906020012014905092915050565b828054610f3b906117a9565b90600052602060002090601f016020900481019282610f5d5760008555610fa4565b82601f10610f7657805160ff1916838001178555610fa4565b82800160010185558215610fa4579182015b82811115610fa3578251825591602001919060010190610f88565b5b509050610fb19190611082565b5090565b828054610fc1906117a9565b90600052602060002090601f016020900481019282610fe35760008555611031565b82601f10610ff45780548555611031565b8280016001018555821561103157600052602060002091601f016020900482015b82811115611030578254825591600101919060010190611015565b5b50905061103e9190611082565b5090565b50805461104e906117a9565b6000825580601f10611060575061107f565b601f01602090049060005260206000209081019061107e9190611082565b5b50565b5b8082111561109b576000816000905550600101611083565b5090565b60006110b26110ad8461165d565b61162c565b9050828152602081018484840111156110ca57600080fd5b6110d584828561173d565b509392505050565b600082601f8301126110ee57600080fd5b81356110fe84826020860161109f565b91505092915050565b600081359050611116816118c2565b92915050565b60006020828403121561112e57600080fd5b600082013567ffffffffffffffff81111561114857600080fd5b611154848285016110dd565b91505092915050565b6000806040838503121561117057600080fd5b600083013567ffffffffffffffff81111561118a57600080fd5b611196858286016110dd565b925050602083013567ffffffffffffffff8111156111b357600080fd5b6111bf858286016110dd565b9150509250929050565b6000806000606084860312156111de57600080fd5b600084013567ffffffffffffffff8111156111f857600080fd5b611204868287016110dd565b935050602084013567ffffffffffffffff81111561122157600080fd5b61122d868287016110dd565b925050604061123e86828701611107565b9150509250925092565b60006020828403121561125a57600080fd5b600061126884828501611107565b91505092915050565b600061127d8383611461565b905092915050565b60006112908261169d565b61129a81856116c0565b9350836020820285016112ac8561168d565b8060005b858110156112e857848403895281516112c98582611271565b94506112d4836116b3565b925060208a019950506001810190506112b0565b50829750879550505050505092915050565b61130381611727565b82525050565b6000611314826116a8565b61131e81856116d1565b935061132e81856020860161174c565b611337816118b1565b840191505092915050565b600061134d826116a8565b61135781856116e2565b935061136781856020860161174c565b611370816118b1565b840191505092915050565b6000611388600e836116e2565b91507f75736572206e6f7420666f756e640000000000000000000000000000000000006000830152602082019050919050565b60006113c8601c836116e2565b91507f4e6f206578697374696e6720757365727320746f2064656c6574652e000000006000830152602082019050919050565b60006114086022836116e2565b91507f7573657220776974682074686174207575696420616c7265616479206578697360008301527f74730000000000000000000000000000000000000000000000000000000000006020830152604082019050919050565b6000606083016000830151848203600086015261147e8282611309565b915050602083015184820360208601526114988282611309565b91505060408301516114ad60408601826114b8565b508091505092915050565b6114c181611733565b82525050565b6114d081611733565b82525050565b600060208201905081810360008301526114f08184611285565b905092915050565b600060208201905061150d60008301846112fa565b92915050565b6000602082019050818103600083015261152d8184611342565b905092915050565b6000604082019050818103600083015261154f8185611342565b905081810360208301526115638184611342565b90509392505050565b600060608201905081810360008301526115868186611342565b9050818103602083015261159a8185611342565b90506115a960408301846114c7565b949350505050565b600060208201905081810360008301526115ca8161137b565b9050919050565b600060208201905081810360008301526115ea816113bb565b9050919050565b6000602082019050818103600083015261160a816113fb565b9050919050565b600060208201905061162660008301846114c7565b92915050565b6000604051905081810181811067ffffffffffffffff8211171561165357611652611882565b5b8060405250919050565b600067ffffffffffffffff82111561167857611677611882565b5b601f19601f8301169050602081019050919050565b6000819050602082019050919050565b600081519050919050565b600081519050919050565b6000602082019050919050565b600082825260208201905092915050565b600082825260208201905092915050565b600082825260208201905092915050565b60006116fe82611733565b915061170983611733565b92508282101561171c5761171b611824565b5b828203905092915050565b60008115159050919050565b6000819050919050565b82818337600083830152505050565b60005b8381101561176a57808201518184015260208101905061174f565b83811115611779576000848401525b50505050565b600061178a82611733565b9150600082141561179e5761179d611824565b5b600182039050919050565b600060028204905060018216806117c157607f821691505b602082108114156117d5576117d4611853565b5b50919050565b60006117e682611733565b91507fffffffffffffffffffffffffffffffffffffffffffffffffffffffffffffffff82141561181957611818611824565b5b600182019050919050565b7f4e487b7100000000000000000000000000000000000000000000000000000000600052601160045260246000fd5b7f4e487b7100000000000000000000000000000000000000000000000000000000600052602260045260246000fd5b7f4e487b7100000000000000000000000000000000000000000000000000000000600052604160045260246000fd5b6000601f19601f8301169050919050565b6118cb81611733565b81146118d657600080fd5b5056fea26469706673582212207a8e2438f43d1a652e7171938bfd451c673165f0f0269f4da2eb70160717400864736f6c63430008000033",
  "immutableReferences": {},
  "source": "// SPDX-License-Identifier: MIT\npragma solidity >=0.4.22 <0.9.0;\n\ncontract UserCrud {\n    constructor() {\n        totalUsers = 0;\n    }\n\n    struct user {\n        string uuid;\n        string accountType;\n        uint devices;\n    }\n\n    user[] public users;\n\n    uint public totalUsers;\n\n    event UserEvent(string uuid, string accountType, uint devices);\n\n    event AccountTypeUpdated(string uuid, string accountType);\n\n    event UserDelete(string uuid);\n\n    function insert(\n        string memory uuid,\n        string memory accountType,\n        uint devices\n    ) public returns (uint _totalUsers) {\n        user memory newUser = user(uuid, accountType, devices);\n        for(uint i = 0; i<totalUsers; i++) {\n            if(compareStrings(users[i].uuid, uuid)) {\n                revert('user with that uuid already exists');\n            }\n        }\n        users.push(newUser);\n        totalUsers++;\n        emit UserEvent(uuid, accountType, devices);\n        return totalUsers;\n    }\n\n    function updateAccountType(string memory uuid, string memory newAccountType)\n        public\n        returns (bool success)\n    {\n        for (uint i = 0; i < totalUsers; i++) {\n            if (compareStrings(users[i].uuid, uuid)) {\n                users[i].accountType = newAccountType;\n                emit AccountTypeUpdated(uuid, newAccountType);\n                return true;\n            }\n        }\n        return false;\n    }\n\n    function deleteUser(string memory uuid) public returns (bool success) {\n        require(totalUsers > 0, \"No existing users to delete.\");\n\n        for (uint i = 0; i < totalUsers; i++) {\n          if(compareStrings(users[i].uuid, uuid)) {\n            users[i] = users[totalUsers-1];\n            users.pop();\n            totalUsers--;\n            emit UserDelete(uuid);\n            return true;\n          }\n        }\n        return false;\n    }\n\n    function getUser(string memory _uuid) public view returns (string memory uuid, string memory accountType, uint devices) {\n      for(uint i = 0; i<totalUsers; i++){\n        if(compareStrings(users[i].uuid, _uuid)) {\n          return(users[i].uuid, users[i].accountType, users[i].devices);\n        }\n      }\n      revert('user not found');\n    }\n\n    function getUsers() external view returns (user[] memory) {\n        return users;\n    }\n\n    function compareStrings(string memory a, string memory b) internal pure returns (bool) {\n        return keccak256(abi.encode(a)) == keccak256(abi.encode(b));\n    }\n}\n",
  "sourcePath": "C:\\Users\\jose.javier.ramirez\\Documents\\_code\\innovation\\ethcrud\\contracts\\UserCrud.sol",
  "compiler": {
    "name": "solc",
    "version": "0.8.0+commit.c7dfd78e.Emscripten.clang"
  },
  "schemaVersion": "3.4.3",
  "updatedAt": "2021-10-22T20:09:07.043Z",
  "networkType": "ethereum",
  "devdoc": {
    "kind": "dev",
    "methods": {},
    "version": 1
  },
  "userdoc": {
    "kind": "user",
    "methods": {},
    "version": 1
  }
}